A00370992021557417600N0000205202110012110010000001183775210922220228000000000000000               Schlatter Handelsunternehmen eInh. Frank Schlatter          Kaiserstr. 49                 79761  Waldshut-Tiengen              13.08.21                00000000000000010377000000869400000000000000000026000000872000000016570000010377         0019000002000000000208          43888880229534388888022953000000000020210923003709920211001     1018020220330000007000EUR438888802295300000  211001           
B00370992021557417600N000000300129586211001000000Brustbeutel "Butterfly Lina"     0000002000000129900000006210000000000000000000000000000000000001242                              E00000100000404744343908600000000000002               1183775 0105000000                               E
B00370992021557417600N000000200129590211001000000Brustbeutel "Power Robot"        0000002000000129900000006210000000000000000000000000000000000001242                              E00000100000404744343912300000000000002               1183775 0104000000                               E
B00370992021557417600N000000500129595211001000000Brustbeutel "Dino Tres"          0000002000000129900000006210000000000000000000000000000000000001242                              E00000100000404744343916100000000000002               1183775 0115000000                               E
B00370992021557417600N000000400129596211001000000Brustbeutel "Glamour Star"       0000002000000129900000006210000000000000000000000000000000000001242                              E00000100000404744343918500000000000002               1183775 0114000000                               E
B00370992021557417600N000000100183949211001000000Brustbeutel "Unicorn Nuala"      0000002000000129900000006210000000000000000000000000000000000001242                              E00000100000404744341889000000000000002               1183775 0101000000                               E
B00370992021557417600N000000700188101211001000000Brustbeutel "Black Cat Chiko"    0000002000000129900000006210000000000000000000000000000000000001242                              E00000100000404744341909500000000000002               1183775 0118000000                               E
B00370992021557417600N000000600188102211001000000Brustbeutel "Starship"           0000002000000129900000006210000000000000000000000000000000000001242                              E00000100000404744341911800000000000002               1183775 0116000000                               E
C00370992021557417600N00000000000000008694000000872000000103770000001400000016570000000026000000000000000000002600000000000000000000000
